{
  "_format": "hh-sol-artifact-1",
  "contractName": "CronJob",
  "sourceName": "contracts/CronJob.sol",
  "abi": [
    {
      "inputs": [],
      "stateMutability": "nonpayable",
      "type": "constructor"
    },
    {
      "inputs": [
        {
          "internalType": "address",
          "name": "owner",
          "type": "address"
        }
      ],
      "name": "OwnableInvalidOwner",
      "type": "error"
    },
    {
      "inputs": [
        {
          "internalType": "address",
          "name": "account",
          "type": "address"
        }
      ],
      "name": "OwnableUnauthorizedAccount",
      "type": "error"
    },
    {
      "anonymous": false,
      "inputs": [
        {
          "indexed": true,
          "internalType": "address",
          "name": "previousOwner",
          "type": "address"
        },
        {
          "indexed": true,
          "internalType": "address",
          "name": "newOwner",
          "type": "address"
        }
      ],
      "name": "OwnershipTransferred",
      "type": "event"
    },
    {
      "inputs": [],
      "name": "EXECUTION_INTERVAL",
      "outputs": [
        {
          "internalType": "uint24",
          "name": "",
          "type": "uint24"
        }
      ],
      "stateMutability": "view",
      "type": "function"
    },
    {
      "inputs": [],
      "name": "execute",
      "outputs": [],
      "stateMutability": "nonpayable",
      "type": "function"
    },
    {
      "inputs": [],
      "name": "lastExecution",
      "outputs": [
        {
          "internalType": "uint256",
          "name": "",
          "type": "uint256"
        }
      ],
      "stateMutability": "view",
      "type": "function"
    },
    {
      "inputs": [],
      "name": "owner",
      "outputs": [
        {
          "internalType": "address",
          "name": "",
          "type": "address"
        }
      ],
      "stateMutability": "view",
      "type": "function"
    },
    {
      "inputs": [],
      "name": "renounceOwnership",
      "outputs": [],
      "stateMutability": "nonpayable",
      "type": "function"
    },
    {
      "inputs": [
        {
          "internalType": "address",
          "name": "stakingContractAddress",
          "type": "address"
        }
      ],
      "name": "setStakingContract",
      "outputs": [],
      "stateMutability": "nonpayable",
      "type": "function"
    },
    {
      "inputs": [],
      "name": "stakingContract",
      "outputs": [
        {
          "internalType": "address",
          "name": "",
          "type": "address"
        }
      ],
      "stateMutability": "view",
      "type": "function"
    },
    {
      "inputs": [
        {
          "internalType": "address",
          "name": "newOwner",
          "type": "address"
        }
      ],
      "name": "transferOwnership",
      "outputs": [],
      "stateMutability": "nonpayable",
      "type": "function"
    }
  ],
  "bytecode": "0x608060405234801561001057600080fd5b5033600073ffffffffffffffffffffffffffffffffffffffff168173ffffffffffffffffffffffffffffffffffffffff16036100845760006040517f1e4fbdf700000000000000000000000000000000000000000000000000000000815260040161007b91906101a5565b60405180910390fd5b610093816100a060201b60201c565b50426002819055506101c0565b60008060009054906101000a900473ffffffffffffffffffffffffffffffffffffffff169050816000806101000a81548173ffffffffffffffffffffffffffffffffffffffff021916908373ffffffffffffffffffffffffffffffffffffffff1602179055508173ffffffffffffffffffffffffffffffffffffffff168173ffffffffffffffffffffffffffffffffffffffff167f8be0079c531659141344cd1fd0a4f28419497f9722a3daafe3b4186f6b6457e060405160405180910390a35050565b600073ffffffffffffffffffffffffffffffffffffffff82169050919050565b600061018f82610164565b9050919050565b61019f81610184565b82525050565b60006020820190506101ba6000830184610196565b92915050565b6108f0806101cf6000396000f3fe608060405234801561001057600080fd5b50600436106100885760003560e01c8063b0b943a21161005b578063b0b943a2146100db578063b7fc3e51146100f9578063ee99205c14610117578063f2fde38b1461013557610088565b8063614619541461008d578063715018a6146100975780638da5cb5b146100a15780639dd373b9146100bf575b600080fd5b610095610151565b005b61009f610304565b005b6100a9610318565b6040516100b691906105da565b60405180910390f35b6100d960048036038101906100d49190610626565b610341565b005b6100e361038d565b6040516100f09190610671565b60405180910390f35b610101610394565b60405161010e91906106a5565b60405180910390f35b61011f61039a565b60405161012c91906105da565b60405180910390f35b61014f600480360381019061014a9190610626565b6103c0565b005b6201518062ffffff1660025461016791906106ef565b4210156101a9576040517f08c379a00000000000000000000000000000000000000000000000000000000081526004016101a090610780565b60405180910390fd5b6000600160009054906101000a900473ffffffffffffffffffffffffffffffffffffffff1673ffffffffffffffffffffffffffffffffffffffff166040516024016040516020818303038152906040527f77742b5f000000000000000000000000000000000000000000000000000000007bffffffffffffffffffffffffffffffffffffffffffffffffffffffff19166020820180517bffffffffffffffffffffffffffffffffffffffffffffffffffffffff83818316178352505050506040516102749190610811565b6000604051808303816000865af19150503d80600081146102b1576040519150601f19603f3d011682016040523d82523d6000602084013e6102b6565b606091505b50509050806102fa576040517f08c379a00000000000000000000000000000000000000000000000000000000081526004016102f19061089a565b60405180910390fd5b4260028190555050565b61030c610446565b61031660006104cd565b565b60008060009054906101000a900473ffffffffffffffffffffffffffffffffffffffff16905090565b610349610446565b80600160006101000a81548173ffffffffffffffffffffffffffffffffffffffff021916908373ffffffffffffffffffffffffffffffffffffffff16021790555050565b6201518081565b60025481565b600160009054906101000a900473ffffffffffffffffffffffffffffffffffffffff1681565b6103c8610446565b600073ffffffffffffffffffffffffffffffffffffffff168173ffffffffffffffffffffffffffffffffffffffff160361043a5760006040517f1e4fbdf700000000000000000000000000000000000000000000000000000000815260040161043191906105da565b60405180910390fd5b610443816104cd565b50565b61044e610591565b73ffffffffffffffffffffffffffffffffffffffff1661046c610318565b73ffffffffffffffffffffffffffffffffffffffff16146104cb5761048f610591565b6040517f118cdaa70000000000000000000000000000000000000000000000000000000081526004016104c291906105da565b60405180910390fd5b565b60008060009054906101000a900473ffffffffffffffffffffffffffffffffffffffff169050816000806101000a81548173ffffffffffffffffffffffffffffffffffffffff021916908373ffffffffffffffffffffffffffffffffffffffff1602179055508173ffffffffffffffffffffffffffffffffffffffff168173ffffffffffffffffffffffffffffffffffffffff167f8be0079c531659141344cd1fd0a4f28419497f9722a3daafe3b4186f6b6457e060405160405180910390a35050565b600033905090565b600073ffffffffffffffffffffffffffffffffffffffff82169050919050565b60006105c482610599565b9050919050565b6105d4816105b9565b82525050565b60006020820190506105ef60008301846105cb565b92915050565b600080fd5b610603816105b9565b811461060e57600080fd5b50565b600081359050610620816105fa565b92915050565b60006020828403121561063c5761063b6105f5565b5b600061064a84828501610611565b91505092915050565b600062ffffff82169050919050565b61066b81610653565b82525050565b60006020820190506106866000830184610662565b92915050565b6000819050919050565b61069f8161068c565b82525050565b60006020820190506106ba6000830184610696565b92915050565b7f4e487b7100000000000000000000000000000000000000000000000000000000600052601160045260246000fd5b60006106fa8261068c565b91506107058361068c565b925082820190508082111561071d5761071c6106c0565b5b92915050565b600082825260208201905092915050565b7f43726f6e4a6f623a204e6f742074696d6520746f206578656375746520796574600082015250565b600061076a602083610723565b915061077582610734565b602082019050919050565b600060208201905081810360008301526107998161075d565b9050919050565b600081519050919050565b600081905092915050565b60005b838110156107d45780820151818401526020810190506107b9565b60008484015250505050565b60006107eb826107a0565b6107f581856107ab565b93506108058185602086016107b6565b80840191505092915050565b600061081d82846107e0565b915081905092915050565b7f43726f6e4a6f623a204661696c656420746f2063616c6c20646973747269627560008201527f7465526577617264734461696c79000000000000000000000000000000000000602082015250565b6000610884602e83610723565b915061088f82610828565b604082019050919050565b600060208201905081810360008301526108b381610877565b905091905056fea264697066735822122034b6b08a6d650522158ef15d3e9156ed2a8e6484426328a0feb5bb5b0be85f6364736f6c634300081a0033",
  "linkReferences": {},
  "deployedLinkReferences": {}
}