{
  "_format": "hh-sol-artifact-1",
  "contractName": "CronJob",
  "sourceName": "contracts/CronJob.sol",
  "abi": [
    {
      "inputs": [],
      "stateMutability": "nonpayable",
      "type": "constructor"
    },
    {
      "inputs": [
        {
          "internalType": "address",
          "name": "owner",
          "type": "address"
        }
      ],
      "name": "OwnableInvalidOwner",
      "type": "error"
    },
    {
      "inputs": [
        {
          "internalType": "address",
          "name": "account",
          "type": "address"
        }
      ],
      "name": "OwnableUnauthorizedAccount",
      "type": "error"
    },
    {
      "anonymous": false,
      "inputs": [
        {
          "indexed": true,
          "internalType": "bytes32",
          "name": "jobId",
          "type": "bytes32"
        }
      ],
      "name": "JobCancelled",
      "type": "event"
    },
    {
      "anonymous": false,
      "inputs": [
        {
          "indexed": true,
          "internalType": "bytes32",
          "name": "jobId",
          "type": "bytes32"
        },
        {
          "indexed": true,
          "internalType": "address",
          "name": "target",
          "type": "address"
        },
        {
          "indexed": false,
          "internalType": "uint64",
          "name": "executionTime",
          "type": "uint64"
        }
      ],
      "name": "JobScheduled",
      "type": "event"
    },
    {
      "anonymous": false,
      "inputs": [
        {
          "indexed": true,
          "internalType": "address",
          "name": "previousOwner",
          "type": "address"
        },
        {
          "indexed": true,
          "internalType": "address",
          "name": "newOwner",
          "type": "address"
        }
      ],
      "name": "OwnershipTransferred",
      "type": "event"
    },
    {
      "inputs": [
        {
          "internalType": "bytes32",
          "name": "_jobId",
          "type": "bytes32"
        }
      ],
      "name": "cancelJob",
      "outputs": [],
      "stateMutability": "nonpayable",
      "type": "function"
    },
    {
      "inputs": [],
      "name": "owner",
      "outputs": [
        {
          "internalType": "address",
          "name": "",
          "type": "address"
        }
      ],
      "stateMutability": "view",
      "type": "function"
    },
    {
      "inputs": [],
      "name": "renounceOwnership",
      "outputs": [],
      "stateMutability": "nonpayable",
      "type": "function"
    },
    {
      "inputs": [
        {
          "internalType": "address",
          "name": "_target",
          "type": "address"
        },
        {
          "internalType": "uint64",
          "name": "_executionTime",
          "type": "uint64"
        },
        {
          "internalType": "bytes",
          "name": "_data",
          "type": "bytes"
        }
      ],
      "name": "scheduleJob",
      "outputs": [
        {
          "internalType": "bytes32",
          "name": "",
          "type": "bytes32"
        }
      ],
      "stateMutability": "nonpayable",
      "type": "function"
    },
    {
      "inputs": [
        {
          "internalType": "address",
          "name": "newOwner",
          "type": "address"
        }
      ],
      "name": "transferOwnership",
      "outputs": [],
      "stateMutability": "nonpayable",
      "type": "function"
    }
  ],
  "bytecode": "0x608060405234801561001057600080fd5b5033600073ffffffffffffffffffffffffffffffffffffffff168173ffffffffffffffffffffffffffffffffffffffff16036100845760006040517f1e4fbdf700000000000000000000000000000000000000000000000000000000815260040161007b919061019e565b60405180910390fd5b6100938161009960201b60201c565b506101b9565b60008060009054906101000a900473ffffffffffffffffffffffffffffffffffffffff169050816000806101000a81548173ffffffffffffffffffffffffffffffffffffffff021916908373ffffffffffffffffffffffffffffffffffffffff1602179055508173ffffffffffffffffffffffffffffffffffffffff168173ffffffffffffffffffffffffffffffffffffffff167f8be0079c531659141344cd1fd0a4f28419497f9722a3daafe3b4186f6b6457e060405160405180910390a35050565b600073ffffffffffffffffffffffffffffffffffffffff82169050919050565b60006101888261015d565b9050919050565b6101988161017d565b82525050565b60006020820190506101b3600083018461018f565b92915050565b6109d4806101c86000396000f3fe608060405234801561001057600080fd5b50600436106100575760003560e01c80635fae14501461005c578063715018a6146100785780637fb54758146100825780638da5cb5b146100b2578063f2fde38b146100d0575b600080fd5b61007660048036038101906100719190610526565b6100ec565b005b610080610190565b005b61009c60048036038101906100979190610656565b6101a4565b6040516100a991906106d9565b60405180910390f35b6100ba6102e4565b6040516100c79190610703565b60405180910390f35b6100ea60048036038101906100e5919061071e565b61030d565b005b6100f4610393565b608a73ffffffffffffffffffffffffffffffffffffffff1663c4d252f5826040518263ffffffff1660e01b815260040161012e91906106d9565b600060405180830381600087803b15801561014857600080fd5b505af115801561015c573d6000803e3d6000fd5b50505050807f9ccc861eaec2aceb9488758b457d6274b344707bc4e961cbaefacd208025410f60405160405180910390a250565b610198610393565b6101a2600061041a565b565b60006101ae610393565b428467ffffffffffffffff16116101fa576040517f08c379a00000000000000000000000000000000000000000000000000000000081526004016101f1906107ce565b60405180910390fd5b6000608a73ffffffffffffffffffffffffffffffffffffffff1663d5f8527187600062030d408989896040518763ffffffff1660e01b8152600401610244969594939291906108e5565b6020604051808303816000875af1158015610263573d6000803e3d6000fd5b505050506040513d601f19601f820116820180604052508101906102879190610956565b90508573ffffffffffffffffffffffffffffffffffffffff16817f4632f38624a64ab5bfb2f1a619be9fa15f974274b2f232392ffb19af15e55850876040516102d09190610983565b60405180910390a380915050949350505050565b60008060009054906101000a900473ffffffffffffffffffffffffffffffffffffffff16905090565b610315610393565b600073ffffffffffffffffffffffffffffffffffffffff168173ffffffffffffffffffffffffffffffffffffffff16036103875760006040517f1e4fbdf700000000000000000000000000000000000000000000000000000000815260040161037e9190610703565b60405180910390fd5b6103908161041a565b50565b61039b6104de565b73ffffffffffffffffffffffffffffffffffffffff166103b96102e4565b73ffffffffffffffffffffffffffffffffffffffff1614610418576103dc6104de565b6040517f118cdaa700000000000000000000000000000000000000000000000000000000815260040161040f9190610703565b60405180910390fd5b565b60008060009054906101000a900473ffffffffffffffffffffffffffffffffffffffff169050816000806101000a81548173ffffffffffffffffffffffffffffffffffffffff021916908373ffffffffffffffffffffffffffffffffffffffff1602179055508173ffffffffffffffffffffffffffffffffffffffff168173ffffffffffffffffffffffffffffffffffffffff167f8be0079c531659141344cd1fd0a4f28419497f9722a3daafe3b4186f6b6457e060405160405180910390a35050565b600033905090565b600080fd5b600080fd5b6000819050919050565b610503816104f0565b811461050e57600080fd5b50565b600081359050610520816104fa565b92915050565b60006020828403121561053c5761053b6104e6565b5b600061054a84828501610511565b91505092915050565b600073ffffffffffffffffffffffffffffffffffffffff82169050919050565b600061057e82610553565b9050919050565b61058e81610573565b811461059957600080fd5b50565b6000813590506105ab81610585565b92915050565b600067ffffffffffffffff82169050919050565b6105ce816105b1565b81146105d957600080fd5b50565b6000813590506105eb816105c5565b92915050565b600080fd5b600080fd5b600080fd5b60008083601f840112610616576106156105f1565b5b8235905067ffffffffffffffff811115610633576106326105f6565b5b60208301915083600182028301111561064f5761064e6105fb565b5b9250929050565b600080600080606085870312156106705761066f6104e6565b5b600061067e8782880161059c565b945050602061068f878288016105dc565b935050604085013567ffffffffffffffff8111156106b0576106af6104eb565b5b6106bc87828801610600565b925092505092959194509250565b6106d3816104f0565b82525050565b60006020820190506106ee60008301846106ca565b92915050565b6106fd81610573565b82525050565b600060208201905061071860008301846106f4565b92915050565b600060208284031215610734576107336104e6565b5b60006107428482850161059c565b91505092915050565b600082825260208201905092915050565b7f457865637574696f6e2074696d65206d75737420626520696e2074686520667560008201527f7475726500000000000000000000000000000000000000000000000000000000602082015250565b60006107b860248361074b565b91506107c38261075c565b604082019050919050565b600060208201905081810360008301526107e7816107ab565b9050919050565b6000819050919050565b6000819050919050565b6000819050919050565b600061082761082261081d846107ee565b610802565b6107f8565b9050919050565b6108378161080c565b82525050565b6000819050919050565b600061086261085d6108588461083d565b610802565b6107f8565b9050919050565b61087281610847565b82525050565b610881816105b1565b82525050565b600082825260208201905092915050565b82818337600083830152505050565b6000601f19601f8301169050919050565b60006108c48385610887565b93506108d1838584610898565b6108da836108a7565b840190509392505050565b600060a0820190506108fa60008301896106f4565b610907602083018861082e565b6109146040830187610869565b6109216060830186610878565b81810360808301526109348184866108b8565b9050979650505050505050565b600081519050610950816104fa565b92915050565b60006020828403121561096c5761096b6104e6565b5b600061097a84828501610941565b91505092915050565b60006020820190506109986000830184610878565b9291505056fea2646970667358221220f78063f1d82aceb6f23972348c4c6aab8ff18da2198f97e0b8ca55facc00d09e64736f6c634300081a0033",
  "linkReferences": {},
  "deployedLinkReferences": {}
}