{
  "_format": "hh-sol-artifact-1",
  "contractName": "HelivaultToken",
  "sourceName": "contracts/HelivaultToken.sol",
  "abi": [
    {
      "inputs": [
        {
          "internalType": "address",
          "name": "initialOwner",
          "type": "address"
        }
      ],
      "stateMutability": "nonpayable",
      "type": "constructor"
    },
    {
      "inputs": [
        {
          "internalType": "address",
          "name": "spender",
          "type": "address"
        },
        {
          "internalType": "uint256",
          "name": "allowance",
          "type": "uint256"
        },
        {
          "internalType": "uint256",
          "name": "needed",
          "type": "uint256"
        }
      ],
      "name": "ERC20InsufficientAllowance",
      "type": "error"
    },
    {
      "inputs": [
        {
          "internalType": "address",
          "name": "sender",
          "type": "address"
        },
        {
          "internalType": "uint256",
          "name": "balance",
          "type": "uint256"
        },
        {
          "internalType": "uint256",
          "name": "needed",
          "type": "uint256"
        }
      ],
      "name": "ERC20InsufficientBalance",
      "type": "error"
    },
    {
      "inputs": [
        {
          "internalType": "address",
          "name": "approver",
          "type": "address"
        }
      ],
      "name": "ERC20InvalidApprover",
      "type": "error"
    },
    {
      "inputs": [
        {
          "internalType": "address",
          "name": "receiver",
          "type": "address"
        }
      ],
      "name": "ERC20InvalidReceiver",
      "type": "error"
    },
    {
      "inputs": [
        {
          "internalType": "address",
          "name": "sender",
          "type": "address"
        }
      ],
      "name": "ERC20InvalidSender",
      "type": "error"
    },
    {
      "inputs": [
        {
          "internalType": "address",
          "name": "spender",
          "type": "address"
        }
      ],
      "name": "ERC20InvalidSpender",
      "type": "error"
    },
    {
      "inputs": [],
      "name": "EnforcedPause",
      "type": "error"
    },
    {
      "inputs": [],
      "name": "ExpectedPause",
      "type": "error"
    },
    {
      "inputs": [
        {
          "internalType": "address",
          "name": "owner",
          "type": "address"
        }
      ],
      "name": "OwnableInvalidOwner",
      "type": "error"
    },
    {
      "inputs": [
        {
          "internalType": "address",
          "name": "account",
          "type": "address"
        }
      ],
      "name": "OwnableUnauthorizedAccount",
      "type": "error"
    },
    {
      "anonymous": false,
      "inputs": [
        {
          "indexed": true,
          "internalType": "address",
          "name": "owner",
          "type": "address"
        },
        {
          "indexed": true,
          "internalType": "address",
          "name": "spender",
          "type": "address"
        },
        {
          "indexed": false,
          "internalType": "uint256",
          "name": "value",
          "type": "uint256"
        }
      ],
      "name": "Approval",
      "type": "event"
    },
    {
      "anonymous": false,
      "inputs": [
        {
          "indexed": true,
          "internalType": "address",
          "name": "previousOwner",
          "type": "address"
        },
        {
          "indexed": true,
          "internalType": "address",
          "name": "newOwner",
          "type": "address"
        }
      ],
      "name": "OwnershipTransferred",
      "type": "event"
    },
    {
      "anonymous": false,
      "inputs": [
        {
          "indexed": false,
          "internalType": "address",
          "name": "account",
          "type": "address"
        }
      ],
      "name": "Paused",
      "type": "event"
    },
    {
      "anonymous": false,
      "inputs": [
        {
          "indexed": true,
          "internalType": "address",
          "name": "from",
          "type": "address"
        },
        {
          "indexed": true,
          "internalType": "address",
          "name": "to",
          "type": "address"
        },
        {
          "indexed": false,
          "internalType": "uint256",
          "name": "value",
          "type": "uint256"
        }
      ],
      "name": "Transfer",
      "type": "event"
    },
    {
      "anonymous": false,
      "inputs": [
        {
          "indexed": false,
          "internalType": "address",
          "name": "account",
          "type": "address"
        }
      ],
      "name": "Unpaused",
      "type": "event"
    },
    {
      "inputs": [
        {
          "internalType": "address",
          "name": "owner",
          "type": "address"
        },
        {
          "internalType": "address",
          "name": "spender",
          "type": "address"
        }
      ],
      "name": "allowance",
      "outputs": [
        {
          "internalType": "uint256",
          "name": "",
          "type": "uint256"
        }
      ],
      "stateMutability": "view",
      "type": "function"
    },
    {
      "inputs": [
        {
          "internalType": "address",
          "name": "spender",
          "type": "address"
        },
        {
          "internalType": "uint256",
          "name": "value",
          "type": "uint256"
        }
      ],
      "name": "approve",
      "outputs": [
        {
          "internalType": "bool",
          "name": "",
          "type": "bool"
        }
      ],
      "stateMutability": "nonpayable",
      "type": "function"
    },
    {
      "inputs": [
        {
          "internalType": "address",
          "name": "account",
          "type": "address"
        }
      ],
      "name": "balanceOf",
      "outputs": [
        {
          "internalType": "uint256",
          "name": "",
          "type": "uint256"
        }
      ],
      "stateMutability": "view",
      "type": "function"
    },
    {
      "inputs": [
        {
          "internalType": "uint256",
          "name": "value",
          "type": "uint256"
        }
      ],
      "name": "burn",
      "outputs": [],
      "stateMutability": "nonpayable",
      "type": "function"
    },
    {
      "inputs": [
        {
          "internalType": "address",
          "name": "account",
          "type": "address"
        },
        {
          "internalType": "uint256",
          "name": "value",
          "type": "uint256"
        }
      ],
      "name": "burnFrom",
      "outputs": [],
      "stateMutability": "nonpayable",
      "type": "function"
    },
    {
      "inputs": [],
      "name": "decimals",
      "outputs": [
        {
          "internalType": "uint8",
          "name": "",
          "type": "uint8"
        }
      ],
      "stateMutability": "view",
      "type": "function"
    },
    {
      "inputs": [],
      "name": "faucet",
      "outputs": [],
      "stateMutability": "nonpayable",
      "type": "function"
    },
    {
      "inputs": [],
      "name": "faucetAmount",
      "outputs": [
        {
          "internalType": "uint256",
          "name": "",
          "type": "uint256"
        }
      ],
      "stateMutability": "view",
      "type": "function"
    },
    {
      "inputs": [],
      "name": "faucetCooldown",
      "outputs": [
        {
          "internalType": "uint256",
          "name": "",
          "type": "uint256"
        }
      ],
      "stateMutability": "view",
      "type": "function"
    },
    {
      "inputs": [
        {
          "internalType": "address",
          "name": "",
          "type": "address"
        }
      ],
      "name": "lastFaucetUse",
      "outputs": [
        {
          "internalType": "uint256",
          "name": "",
          "type": "uint256"
        }
      ],
      "stateMutability": "view",
      "type": "function"
    },
    {
      "inputs": [],
      "name": "name",
      "outputs": [
        {
          "internalType": "string",
          "name": "",
          "type": "string"
        }
      ],
      "stateMutability": "view",
      "type": "function"
    },
    {
      "inputs": [],
      "name": "owner",
      "outputs": [
        {
          "internalType": "address",
          "name": "",
          "type": "address"
        }
      ],
      "stateMutability": "view",
      "type": "function"
    },
    {
      "inputs": [],
      "name": "pause",
      "outputs": [],
      "stateMutability": "nonpayable",
      "type": "function"
    },
    {
      "inputs": [],
      "name": "paused",
      "outputs": [
        {
          "internalType": "bool",
          "name": "",
          "type": "bool"
        }
      ],
      "stateMutability": "view",
      "type": "function"
    },
    {
      "inputs": [],
      "name": "renounceOwnership",
      "outputs": [],
      "stateMutability": "nonpayable",
      "type": "function"
    },
    {
      "inputs": [
        {
          "internalType": "uint256",
          "name": "_amount",
          "type": "uint256"
        }
      ],
      "name": "setFaucetAmount",
      "outputs": [],
      "stateMutability": "nonpayable",
      "type": "function"
    },
    {
      "inputs": [
        {
          "internalType": "uint256",
          "name": "_cooldown",
          "type": "uint256"
        }
      ],
      "name": "setFaucetCooldown",
      "outputs": [],
      "stateMutability": "nonpayable",
      "type": "function"
    },
    {
      "inputs": [],
      "name": "symbol",
      "outputs": [
        {
          "internalType": "string",
          "name": "",
          "type": "string"
        }
      ],
      "stateMutability": "view",
      "type": "function"
    },
    {
      "inputs": [],
      "name": "totalSupply",
      "outputs": [
        {
          "internalType": "uint256",
          "name": "",
          "type": "uint256"
        }
      ],
      "stateMutability": "view",
      "type": "function"
    },
    {
      "inputs": [
        {
          "internalType": "address",
          "name": "to",
          "type": "address"
        },
        {
          "internalType": "uint256",
          "name": "value",
          "type": "uint256"
        }
      ],
      "name": "transfer",
      "outputs": [
        {
          "internalType": "bool",
          "name": "",
          "type": "bool"
        }
      ],
      "stateMutability": "nonpayable",
      "type": "function"
    },
    {
      "inputs": [
        {
          "internalType": "address",
          "name": "from",
          "type": "address"
        },
        {
          "internalType": "address",
          "name": "to",
          "type": "address"
        },
        {
          "internalType": "uint256",
          "name": "value",
          "type": "uint256"
        }
      ],
      "name": "transferFrom",
      "outputs": [
        {
          "internalType": "bool",
          "name": "",
          "type": "bool"
        }
      ],
      "stateMutability": "nonpayable",
      "type": "function"
    },
    {
      "inputs": [
        {
          "internalType": "address",
          "name": "newOwner",
          "type": "address"
        }
      ],
      "name": "transferOwnership",
      "outputs": [],
      "stateMutability": "nonpayable",
      "type": "function"
    },
    {
      "inputs": [],
      "name": "unpause",
      "outputs": [],
      "stateMutability": "nonpayable",
      "type": "function"
    }
  ],
  "bytecode": "0x608060405267016345785d8a00006007556201518060085534801561002357600080fd5b506040516125233803806125238339818101604052810190610045919061060b565b806040518060400160405280600f81526020017f48656c697661756c7420546f6b656e00000000000000000000000000000000008152506040518060400160405280600381526020017f485654000000000000000000000000000000000000000000000000000000000081525081600390816100c19190610888565b5080600490816100d19190610888565b505050600073ffffffffffffffffffffffffffffffffffffffff168173ffffffffffffffffffffffffffffffffffffffff16036101465760006040517f1e4fbdf700000000000000000000000000000000000000000000000000000000815260040161013d9190610969565b60405180910390fd5b6101558161019460201b60201c565b5061018e3361016861025a60201b60201c565b600a6101749190610af3565b6301406f406101839190610b3e565b61026360201b60201c565b50610c15565b6000600560019054906101000a900473ffffffffffffffffffffffffffffffffffffffff16905081600560016101000a81548173ffffffffffffffffffffffffffffffffffffffff021916908373ffffffffffffffffffffffffffffffffffffffff1602179055508173ffffffffffffffffffffffffffffffffffffffff168173ffffffffffffffffffffffffffffffffffffffff167f8be0079c531659141344cd1fd0a4f28419497f9722a3daafe3b4186f6b6457e060405160405180910390a35050565b60006012905090565b600073ffffffffffffffffffffffffffffffffffffffff168273ffffffffffffffffffffffffffffffffffffffff16036102d55760006040517fec442f050000000000000000000000000000000000000000000000000000000081526004016102cc9190610969565b60405180910390fd5b6102e7600083836102eb60201b60201c565b5050565b6102fc83838361030160201b60201c565b505050565b61030f61032560201b60201c565b61032083838361036c60201b60201c565b505050565b61033361059160201b60201c565b1561036a576040517fd93c066500000000000000000000000000000000000000000000000000000000815260040160405180910390fd5b565b600073ffffffffffffffffffffffffffffffffffffffff168373ffffffffffffffffffffffffffffffffffffffff16036103be5780600260008282546103b29190610b80565b92505081905550610491565b60008060008573ffffffffffffffffffffffffffffffffffffffff1673ffffffffffffffffffffffffffffffffffffffff1681526020019081526020016000205490508181101561044a578381836040517fe450d38c00000000000000000000000000000000000000000000000000000000815260040161044193929190610bc3565b60405180910390fd5b8181036000808673ffffffffffffffffffffffffffffffffffffffff1673ffffffffffffffffffffffffffffffffffffffff16815260200190815260200160002081905550505b600073ffffffffffffffffffffffffffffffffffffffff168273ffffffffffffffffffffffffffffffffffffffff16036104da5780600260008282540392505081905550610527565b806000808473ffffffffffffffffffffffffffffffffffffffff1673ffffffffffffffffffffffffffffffffffffffff168152602001908152602001600020600082825401925050819055505b8173ffffffffffffffffffffffffffffffffffffffff168373ffffffffffffffffffffffffffffffffffffffff167fddf252ad1be2c89b69c2b068fc378daa952ba7f163c4a11628f55a4df523b3ef836040516105849190610bfa565b60405180910390a3505050565b6000600560009054906101000a900460ff16905090565b600080fd5b600073ffffffffffffffffffffffffffffffffffffffff82169050919050565b60006105d8826105ad565b9050919050565b6105e8816105cd565b81146105f357600080fd5b50565b600081519050610605816105df565b92915050565b600060208284031215610621576106206105a8565b5b600061062f848285016105f6565b91505092915050565b600081519050919050565b7f4e487b7100000000000000000000000000000000000000000000000000000000600052604160045260246000fd5b7f4e487b7100000000000000000000000000000000000000000000000000000000600052602260045260246000fd5b600060028204905060018216806106b957607f821691505b6020821081036106cc576106cb610672565b5b50919050565b60008190508160005260206000209050919050565b60006020601f8301049050919050565b600082821b905092915050565b6000600883026107347fffffffffffffffffffffffffffffffffffffffffffffffffffffffffffffffff826106f7565b61073e86836106f7565b95508019841693508086168417925050509392505050565b6000819050919050565b6000819050919050565b600061078561078061077b84610756565b610760565b610756565b9050919050565b6000819050919050565b61079f8361076a565b6107b36107ab8261078c565b848454610704565b825550505050565b600090565b6107c86107bb565b6107d3818484610796565b505050565b5b818110156107f7576107ec6000826107c0565b6001810190506107d9565b5050565b601f82111561083c5761080d816106d2565b610816846106e7565b81016020851015610825578190505b610839610831856106e7565b8301826107d8565b50505b505050565b600082821c905092915050565b600061085f60001984600802610841565b1980831691505092915050565b6000610878838361084e565b9150826002028217905092915050565b61089182610638565b67ffffffffffffffff8111156108aa576108a9610643565b5b6108b482546106a1565b6108bf8282856107fb565b600060209050601f8311600181146108f257600084156108e0578287015190505b6108ea858261086c565b865550610952565b601f198416610900866106d2565b60005b8281101561092857848901518255600182019150602085019450602081019050610903565b868310156109455784890151610941601f89168261084e565b8355505b6001600288020188555050505b505050505050565b610963816105cd565b82525050565b600060208201905061097e600083018461095a565b92915050565b7f4e487b7100000000000000000000000000000000000000000000000000000000600052601160045260246000fd5b60008160011c9050919050565b6000808291508390505b6001851115610a0a578086048111156109e6576109e5610984565b5b60018516156109f55780820291505b8081029050610a03856109b3565b94506109ca565b94509492505050565b600082610a235760019050610adf565b81610a315760009050610adf565b8160018114610a475760028114610a5157610a80565b6001915050610adf565b60ff841115610a6357610a62610984565b5b8360020a915084821115610a7a57610a79610984565b5b50610adf565b5060208310610133831016604e8410600b8410161715610ab55782820a905083811115610ab057610aaf610984565b5b610adf565b610ac284848460016109c0565b92509050818404811115610ad957610ad8610984565b5b81810290505b9392505050565b600060ff82169050919050565b6000610afe82610756565b9150610b0983610ae6565b9250610b367fffffffffffffffffffffffffffffffffffffffffffffffffffffffffffffffff8484610a13565b905092915050565b6000610b4982610756565b9150610b5483610756565b9250828202610b6281610756565b91508282048414831517610b7957610b78610984565b5b5092915050565b6000610b8b82610756565b9150610b9683610756565b9250828201905080821115610bae57610bad610984565b5b92915050565b610bbd81610756565b82525050565b6000606082019050610bd8600083018661095a565b610be56020830185610bb4565b610bf26040830184610bb4565b949350505050565b6000602082019050610c0f6000830184610bb4565b92915050565b6118ff80610c246000396000f3fe608060405234801561001057600080fd5b506004361061014d5760003560e01c80637e36320b116100c35780639c2814301161007c5780639c28143014610342578063a9059cbb14610360578063dd62ed3e14610390578063de5f72fd146103c0578063eee96fef146103ca578063f2fde38b146103fa5761014d565b80637e36320b146102a657806381d2fd9c146102c45780638456cb59146102e05780638da5cb5b146102ea578063913592041461030857806395d89b41146103245761014d565b80633f4ba83a116101155780633f4ba83a1461020c57806342966c68146102165780635c975abb1461023257806370a0823114610250578063715018a61461028057806379cc67901461028a5761014d565b806306fdde0314610152578063095ea7b31461017057806318160ddd146101a057806323b872dd146101be578063313ce567146101ee575b600080fd5b61015a610416565b60405161016791906112fa565b60405180910390f35b61018a600480360381019061018591906113b5565b6104a8565b6040516101979190611410565b60405180910390f35b6101a86104cb565b6040516101b5919061143a565b60405180910390f35b6101d860048036038101906101d39190611455565b6104d5565b6040516101e59190611410565b60405180910390f35b6101f6610504565b60405161020391906114c4565b60405180910390f35b61021461050d565b005b610230600480360381019061022b91906114df565b61051f565b005b61023a610533565b6040516102479190611410565b60405180910390f35b61026a6004803603810190610265919061150c565b61054a565b604051610277919061143a565b60405180910390f35b610288610592565b005b6102a4600480360381019061029f91906113b5565b6105a6565b005b6102ae6105c6565b6040516102bb919061143a565b60405180910390f35b6102de60048036038101906102d991906114df565b6105cc565b005b6102e86105fc565b005b6102f261060e565b6040516102ff9190611548565b60405180910390f35b610322600480360381019061031d91906114df565b610638565b005b61032c61064a565b60405161033991906112fa565b60405180910390f35b61034a6106dc565b604051610357919061143a565b60405180910390f35b61037a600480360381019061037591906113b5565b6106e2565b6040516103879190611410565b60405180910390f35b6103aa60048036038101906103a59190611563565b610705565b6040516103b7919061143a565b60405180910390f35b6103c861078c565b005b6103e460048036038101906103df919061150c565b61086d565b6040516103f1919061143a565b60405180910390f35b610414600480360381019061040f919061150c565b610885565b005b606060038054610425906115d2565b80601f0160208091040260200160405190810160405280929190818152602001828054610451906115d2565b801561049e5780601f106104735761010080835404028352916020019161049e565b820191906000526020600020905b81548152906001019060200180831161048157829003601f168201915b5050505050905090565b6000806104b361090b565b90506104c0818585610913565b600191505092915050565b6000600254905090565b6000806104e061090b565b90506104ed858285610925565b6104f88585856109ba565b60019150509392505050565b60006012905090565b610515610aae565b61051d610b35565b565b61053061052a61090b565b82610b98565b50565b6000600560009054906101000a900460ff16905090565b60008060008373ffffffffffffffffffffffffffffffffffffffff1673ffffffffffffffffffffffffffffffffffffffff168152602001908152602001600020549050919050565b61059a610aae565b6105a46000610c1a565b565b6105b8826105b261090b565b83610925565b6105c28282610b98565b5050565b60085481565b6105d4610aae565b6105dc610504565b600a6105e89190611765565b816105f391906117b0565b60078190555050565b610604610aae565b61060c610ce0565b565b6000600560019054906101000a900473ffffffffffffffffffffffffffffffffffffffff16905090565b610640610aae565b8060088190555050565b606060048054610659906115d2565b80601f0160208091040260200160405190810160405280929190818152602001828054610685906115d2565b80156106d25780601f106106a7576101008083540402835291602001916106d2565b820191906000526020600020905b8154815290600101906020018083116106b557829003601f168201915b5050505050905090565b60075481565b6000806106ed61090b565b90506106fa8185856109ba565b600191505092915050565b6000600160008473ffffffffffffffffffffffffffffffffffffffff1673ffffffffffffffffffffffffffffffffffffffff16815260200190815260200160002060008373ffffffffffffffffffffffffffffffffffffffff1673ffffffffffffffffffffffffffffffffffffffff16815260200190815260200160002054905092915050565b600854600660003373ffffffffffffffffffffffffffffffffffffffff1673ffffffffffffffffffffffffffffffffffffffff168152602001908152602001600020546107d991906117f2565b42101561081b576040517f08c379a000000000000000000000000000000000000000000000000000000000815260040161081290611872565b60405180910390fd5b42600660003373ffffffffffffffffffffffffffffffffffffffff1673ffffffffffffffffffffffffffffffffffffffff1681526020019081526020016000208190555061086b33600754610d43565b565b60066020528060005260406000206000915090505481565b61088d610aae565b600073ffffffffffffffffffffffffffffffffffffffff168173ffffffffffffffffffffffffffffffffffffffff16036108ff5760006040517f1e4fbdf70000000000000000000000000000000000000000000000000000000081526004016108f69190611548565b60405180910390fd5b61090881610c1a565b50565b600033905090565b6109208383836001610dc5565b505050565b60006109318484610705565b90507fffffffffffffffffffffffffffffffffffffffffffffffffffffffffffffffff8110156109b457818110156109a4578281836040517ffb8f41b200000000000000000000000000000000000000000000000000000000815260040161099b93929190611892565b60405180910390fd5b6109b384848484036000610dc5565b5b50505050565b600073ffffffffffffffffffffffffffffffffffffffff168373ffffffffffffffffffffffffffffffffffffffff1603610a2c5760006040517f96c6fd1e000000000000000000000000000000000000000000000000000000008152600401610a239190611548565b60405180910390fd5b600073ffffffffffffffffffffffffffffffffffffffff168273ffffffffffffffffffffffffffffffffffffffff1603610a9e5760006040517fec442f05000000000000000000000000000000000000000000000000000000008152600401610a959190611548565b60405180910390fd5b610aa9838383610f9c565b505050565b610ab661090b565b73ffffffffffffffffffffffffffffffffffffffff16610ad461060e565b73ffffffffffffffffffffffffffffffffffffffff1614610b3357610af761090b565b6040517f118cdaa7000000000000000000000000000000000000000000000000000000008152600401610b2a9190611548565b60405180910390fd5b565b610b3d610fac565b6000600560006101000a81548160ff0219169083151502179055507f5db9ee0a495bf2e6ff9c91a7834c1ba4fdd244a5e8aa4e537bd38aeae4b073aa610b8161090b565b604051610b8e9190611548565b60405180910390a1565b600073ffffffffffffffffffffffffffffffffffffffff168273ffffffffffffffffffffffffffffffffffffffff1603610c0a5760006040517f96c6fd1e000000000000000000000000000000000000000000000000000000008152600401610c019190611548565b60405180910390fd5b610c1682600083610f9c565b5050565b6000600560019054906101000a900473ffffffffffffffffffffffffffffffffffffffff16905081600560016101000a81548173ffffffffffffffffffffffffffffffffffffffff021916908373ffffffffffffffffffffffffffffffffffffffff1602179055508173ffffffffffffffffffffffffffffffffffffffff168173ffffffffffffffffffffffffffffffffffffffff167f8be0079c531659141344cd1fd0a4f28419497f9722a3daafe3b4186f6b6457e060405160405180910390a35050565b610ce8610fec565b6001600560006101000a81548160ff0219169083151502179055507f62e78cea01bee320cd4e420270b5ea74000d11b0c9f74754ebdbfc544b05a258610d2c61090b565b604051610d399190611548565b60405180910390a1565b600073ffffffffffffffffffffffffffffffffffffffff168273ffffffffffffffffffffffffffffffffffffffff1603610db55760006040517fec442f05000000000000000000000000000000000000000000000000000000008152600401610dac9190611548565b60405180910390fd5b610dc160008383610f9c565b5050565b600073ffffffffffffffffffffffffffffffffffffffff168473ffffffffffffffffffffffffffffffffffffffff1603610e375760006040517fe602df05000000000000000000000000000000000000000000000000000000008152600401610e2e9190611548565b60405180910390fd5b600073ffffffffffffffffffffffffffffffffffffffff168373ffffffffffffffffffffffffffffffffffffffff1603610ea95760006040517f94280d62000000000000000000000000000000000000000000000000000000008152600401610ea09190611548565b60405180910390fd5b81600160008673ffffffffffffffffffffffffffffffffffffffff1673ffffffffffffffffffffffffffffffffffffffff16815260200190815260200160002060008573ffffffffffffffffffffffffffffffffffffffff1673ffffffffffffffffffffffffffffffffffffffff168152602001908152602001600020819055508015610f96578273ffffffffffffffffffffffffffffffffffffffff168473ffffffffffffffffffffffffffffffffffffffff167f8c5be1e5ebec7d5bd14f71427d1e84f3dd0314c0f7b2291e5b200ac8c7c3b92584604051610f8d919061143a565b60405180910390a35b50505050565b610fa783838361102d565b505050565b610fb4610533565b610fea576040517f8dfc202b00000000000000000000000000000000000000000000000000000000815260040160405180910390fd5b565b610ff4610533565b1561102b576040517fd93c066500000000000000000000000000000000000000000000000000000000815260040160405180910390fd5b565b611035610fec565b611040838383611045565b505050565b600073ffffffffffffffffffffffffffffffffffffffff168373ffffffffffffffffffffffffffffffffffffffff160361109757806002600082825461108b91906117f2565b9250508190555061116a565b60008060008573ffffffffffffffffffffffffffffffffffffffff1673ffffffffffffffffffffffffffffffffffffffff16815260200190815260200160002054905081811015611123578381836040517fe450d38c00000000000000000000000000000000000000000000000000000000815260040161111a93929190611892565b60405180910390fd5b8181036000808673ffffffffffffffffffffffffffffffffffffffff1673ffffffffffffffffffffffffffffffffffffffff16815260200190815260200160002081905550505b600073ffffffffffffffffffffffffffffffffffffffff168273ffffffffffffffffffffffffffffffffffffffff16036111b35780600260008282540392505081905550611200565b806000808473ffffffffffffffffffffffffffffffffffffffff1673ffffffffffffffffffffffffffffffffffffffff168152602001908152602001600020600082825401925050819055505b8173ffffffffffffffffffffffffffffffffffffffff168373ffffffffffffffffffffffffffffffffffffffff167fddf252ad1be2c89b69c2b068fc378daa952ba7f163c4a11628f55a4df523b3ef8360405161125d919061143a565b60405180910390a3505050565b600081519050919050565b600082825260208201905092915050565b60005b838110156112a4578082015181840152602081019050611289565b60008484015250505050565b6000601f19601f8301169050919050565b60006112cc8261126a565b6112d68185611275565b93506112e6818560208601611286565b6112ef816112b0565b840191505092915050565b6000602082019050818103600083015261131481846112c1565b905092915050565b600080fd5b600073ffffffffffffffffffffffffffffffffffffffff82169050919050565b600061134c82611321565b9050919050565b61135c81611341565b811461136757600080fd5b50565b60008135905061137981611353565b92915050565b6000819050919050565b6113928161137f565b811461139d57600080fd5b50565b6000813590506113af81611389565b92915050565b600080604083850312156113cc576113cb61131c565b5b60006113da8582860161136a565b92505060206113eb858286016113a0565b9150509250929050565b60008115159050919050565b61140a816113f5565b82525050565b60006020820190506114256000830184611401565b92915050565b6114348161137f565b82525050565b600060208201905061144f600083018461142b565b92915050565b60008060006060848603121561146e5761146d61131c565b5b600061147c8682870161136a565b935050602061148d8682870161136a565b925050604061149e868287016113a0565b9150509250925092565b600060ff82169050919050565b6114be816114a8565b82525050565b60006020820190506114d960008301846114b5565b92915050565b6000602082840312156114f5576114f461131c565b5b6000611503848285016113a0565b91505092915050565b6000602082840312156115225761152161131c565b5b60006115308482850161136a565b91505092915050565b61154281611341565b82525050565b600060208201905061155d6000830184611539565b92915050565b6000806040838503121561157a5761157961131c565b5b60006115888582860161136a565b92505060206115998582860161136a565b9150509250929050565b7f4e487b7100000000000000000000000000000000000000000000000000000000600052602260045260246000fd5b600060028204905060018216806115ea57607f821691505b6020821081036115fd576115fc6115a3565b5b50919050565b7f4e487b7100000000000000000000000000000000000000000000000000000000600052601160045260246000fd5b60008160011c9050919050565b6000808291508390505b60018511156116895780860481111561166557611664611603565b5b60018516156116745780820291505b808102905061168285611632565b9450611649565b94509492505050565b6000826116a2576001905061175e565b816116b0576000905061175e565b81600181146116c657600281146116d0576116ff565b600191505061175e565b60ff8411156116e2576116e1611603565b5b8360020a9150848211156116f9576116f8611603565b5b5061175e565b5060208310610133831016604e8410600b84101617156117345782820a90508381111561172f5761172e611603565b5b61175e565b611741848484600161163f565b9250905081840481111561175857611757611603565b5b81810290505b9392505050565b60006117708261137f565b915061177b836114a8565b92506117a87fffffffffffffffffffffffffffffffffffffffffffffffffffffffffffffffff8484611692565b905092915050565b60006117bb8261137f565b91506117c68361137f565b92508282026117d48161137f565b915082820484148315176117eb576117ea611603565b5b5092915050565b60006117fd8261137f565b91506118088361137f565b92508282019050808211156118205761181f611603565b5b92915050565b7f466175636574206973206f6e20636f6f6c646f776e0000000000000000000000600082015250565b600061185c601583611275565b915061186782611826565b602082019050919050565b6000602082019050818103600083015261188b8161184f565b9050919050565b60006060820190506118a76000830186611539565b6118b4602083018561142b565b6118c1604083018461142b565b94935050505056fea264697066735822122057bece88bd2232bf327518a6a58984f7096544a9798a582543d5479e17154bb864736f6c634300081a0033",
  "linkReferences": {},
  "deployedLinkReferences": {}
}