{
  "_format": "hh-sol-artifact-1",
  "contractName": "HyperionClient",
  "sourceName": "contracts/HyperionClient.sol",
  "abi": [
    {
      "inputs": [],
      "stateMutability": "nonpayable",
      "type": "constructor"
    },
    {
      "inputs": [
        {
          "internalType": "address",
          "name": "owner",
          "type": "address"
        }
      ],
      "name": "OwnableInvalidOwner",
      "type": "error"
    },
    {
      "inputs": [
        {
          "internalType": "address",
          "name": "account",
          "type": "address"
        }
      ],
      "name": "OwnableUnauthorizedAccount",
      "type": "error"
    },
    {
      "anonymous": false,
      "inputs": [
        {
          "indexed": false,
          "internalType": "string",
          "name": "chain",
          "type": "string"
        },
        {
          "indexed": false,
          "internalType": "string",
          "name": "target",
          "type": "string"
        },
        {
          "indexed": false,
          "internalType": "string",
          "name": "data",
          "type": "string"
        }
      ],
      "name": "DataQueried",
      "type": "event"
    },
    {
      "anonymous": false,
      "inputs": [
        {
          "indexed": false,
          "internalType": "bool",
          "name": "isValid",
          "type": "bool"
        }
      ],
      "name": "DataValidated",
      "type": "event"
    },
    {
      "anonymous": false,
      "inputs": [
        {
          "indexed": true,
          "internalType": "address",
          "name": "previousOwner",
          "type": "address"
        },
        {
          "indexed": true,
          "internalType": "address",
          "name": "newOwner",
          "type": "address"
        }
      ],
      "name": "OwnershipTransferred",
      "type": "event"
    },
    {
      "inputs": [],
      "name": "hyperion",
      "outputs": [
        {
          "internalType": "contract IHyperion",
          "name": "",
          "type": "address"
        }
      ],
      "stateMutability": "view",
      "type": "function"
    },
    {
      "inputs": [],
      "name": "owner",
      "outputs": [
        {
          "internalType": "address",
          "name": "",
          "type": "address"
        }
      ],
      "stateMutability": "view",
      "type": "function"
    },
    {
      "inputs": [
        {
          "internalType": "string",
          "name": "chain",
          "type": "string"
        },
        {
          "internalType": "string",
          "name": "target",
          "type": "string"
        },
        {
          "internalType": "string",
          "name": "data",
          "type": "string"
        }
      ],
      "name": "queryData",
      "outputs": [],
      "stateMutability": "nonpayable",
      "type": "function"
    },
    {
      "inputs": [],
      "name": "renounceOwnership",
      "outputs": [],
      "stateMutability": "nonpayable",
      "type": "function"
    },
    {
      "inputs": [
        {
          "internalType": "address",
          "name": "_hyperion",
          "type": "address"
        }
      ],
      "name": "setHyperion",
      "outputs": [],
      "stateMutability": "nonpayable",
      "type": "function"
    },
    {
      "inputs": [
        {
          "internalType": "address",
          "name": "newOwner",
          "type": "address"
        }
      ],
      "name": "transferOwnership",
      "outputs": [],
      "stateMutability": "nonpayable",
      "type": "function"
    },
    {
      "inputs": [
        {
          "internalType": "bytes",
          "name": "",
          "type": "bytes"
        }
      ],
      "name": "validateData",
      "outputs": [
        {
          "internalType": "bool",
          "name": "",
          "type": "bool"
        }
      ],
      "stateMutability": "nonpayable",
      "type": "function"
    }
  ],
  "bytecode": "0x608060405234801561001057600080fd5b5033600073ffffffffffffffffffffffffffffffffffffffff168173ffffffffffffffffffffffffffffffffffffffff16036100845760006040517f1e4fbdf700000000000000000000000000000000000000000000000000000000815260040161007b919061019e565b60405180910390fd5b6100938161009960201b60201c565b506101b9565b60008060009054906101000a900473ffffffffffffffffffffffffffffffffffffffff169050816000806101000a81548173ffffffffffffffffffffffffffffffffffffffff021916908373ffffffffffffffffffffffffffffffffffffffff1602179055508173ffffffffffffffffffffffffffffffffffffffff168173ffffffffffffffffffffffffffffffffffffffff167f8be0079c531659141344cd1fd0a4f28419497f9722a3daafe3b4186f6b6457e060405160405180910390a35050565b600073ffffffffffffffffffffffffffffffffffffffff82169050919050565b60006101888261015d565b9050919050565b6101988161017d565b82525050565b60006020820190506101b3600083018461018f565b92915050565b610ad1806101c86000396000f3fe608060405234801561001057600080fd5b506004361061007d5760003560e01c80638da5cb5b1161005b5780638da5cb5b146100c6578063a6ffa36c146100e4578063f2fde38b14610114578063fa758a4e146101305761007d565b80630c1ed9fb146100825780635b8c8d47146100a0578063715018a6146100bc575b600080fd5b61008a61014c565b604051610097919061058b565b60405180910390f35b6100ba60048036038101906100b591906105f8565b610172565b005b6100c46101be565b005b6100ce6101d2565b6040516100db9190610634565b60405180910390f35b6100fe60048036038101906100f99190610795565b6101fb565b60405161010b91906107f9565b60405180910390f35b61012e600480360381019061012991906105f8565b61023e565b005b61014a60048036038101906101459190610874565b6102c4565b005b600160009054906101000a900473ffffffffffffffffffffffffffffffffffffffff1681565b61017a6103b9565b80600160006101000a81548173ffffffffffffffffffffffffffffffffffffffff021916908373ffffffffffffffffffffffffffffffffffffffff16021790555050565b6101c66103b9565b6101d06000610440565b565b60008060009054906101000a900473ffffffffffffffffffffffffffffffffffffffff16905090565b60007f80d641f5f99b542483a8491a66dd0816dbe8c0ffabcb1a7b3d3fb843f2141953600160405161022d91906107f9565b60405180910390a160019050919050565b6102466103b9565b600073ffffffffffffffffffffffffffffffffffffffff168173ffffffffffffffffffffffffffffffffffffffff16036102b85760006040517f1e4fbdf70000000000000000000000000000000000000000000000000000000081526004016102af9190610634565b60405180910390fd5b6102c181610440565b50565b600160009054906101000a900473ffffffffffffffffffffffffffffffffffffffff1673ffffffffffffffffffffffffffffffffffffffff16633e8d63428787878787876040518763ffffffff1660e01b815260040161032996959493929190610966565b600060405180830381865afa158015610346573d6000803e3d6000fd5b505050506040513d6000823e3d601f19601f8201168201806040525081019061036f9190610a52565b507fb55b89af220eb250315f4bb3a7b7698ae7c96d531cffb47522a413883eb30ca58686868686866040516103a996959493929190610966565b60405180910390a1505050505050565b6103c1610504565b73ffffffffffffffffffffffffffffffffffffffff166103df6101d2565b73ffffffffffffffffffffffffffffffffffffffff161461043e57610402610504565b6040517f118cdaa70000000000000000000000000000000000000000000000000000000081526004016104359190610634565b60405180910390fd5b565b60008060009054906101000a900473ffffffffffffffffffffffffffffffffffffffff169050816000806101000a81548173ffffffffffffffffffffffffffffffffffffffff021916908373ffffffffffffffffffffffffffffffffffffffff1602179055508173ffffffffffffffffffffffffffffffffffffffff168173ffffffffffffffffffffffffffffffffffffffff167f8be0079c531659141344cd1fd0a4f28419497f9722a3daafe3b4186f6b6457e060405160405180910390a35050565b600033905090565b600073ffffffffffffffffffffffffffffffffffffffff82169050919050565b6000819050919050565b600061055161054c6105478461050c565b61052c565b61050c565b9050919050565b600061056382610536565b9050919050565b600061057582610558565b9050919050565b6105858161056a565b82525050565b60006020820190506105a0600083018461057c565b92915050565b6000604051905090565b600080fd5b600080fd5b60006105c58261050c565b9050919050565b6105d5816105ba565b81146105e057600080fd5b50565b6000813590506105f2816105cc565b92915050565b60006020828403121561060e5761060d6105b0565b5b600061061c848285016105e3565b91505092915050565b61062e816105ba565b82525050565b60006020820190506106496000830184610625565b92915050565b600080fd5b600080fd5b6000601f19601f8301169050919050565b7f4e487b7100000000000000000000000000000000000000000000000000000000600052604160045260246000fd5b6106a282610659565b810181811067ffffffffffffffff821117156106c1576106c061066a565b5b80604052505050565b60006106d46105a6565b90506106e08282610699565b919050565b600067ffffffffffffffff821115610700576106ff61066a565b5b61070982610659565b9050602081019050919050565b82818337600083830152505050565b6000610738610733846106e5565b6106ca565b90508281526020810184848401111561075457610753610654565b5b61075f848285610716565b509392505050565b600082601f83011261077c5761077b61064f565b5b813561078c848260208601610725565b91505092915050565b6000602082840312156107ab576107aa6105b0565b5b600082013567ffffffffffffffff8111156107c9576107c86105b5565b5b6107d584828501610767565b91505092915050565b60008115159050919050565b6107f3816107de565b82525050565b600060208201905061080e60008301846107ea565b92915050565b600080fd5b600080fd5b60008083601f8401126108345761083361064f565b5b8235905067ffffffffffffffff81111561085157610850610814565b5b60208301915083600182028301111561086d5761086c610819565b5b9250929050565b60008060008060008060608789031215610891576108906105b0565b5b600087013567ffffffffffffffff8111156108af576108ae6105b5565b5b6108bb89828a0161081e565b9650965050602087013567ffffffffffffffff8111156108de576108dd6105b5565b5b6108ea89828a0161081e565b9450945050604087013567ffffffffffffffff81111561090d5761090c6105b5565b5b61091989828a0161081e565b92509250509295509295509295565b600082825260208201905092915050565b60006109458385610928565b9350610952838584610716565b61095b83610659565b840190509392505050565b6000606082019050818103600083015261098181888a610939565b90508181036020830152610996818688610939565b905081810360408301526109ab818486610939565b9050979650505050505050565b60005b838110156109d65780820151818401526020810190506109bb565b60008484015250505050565b60006109f56109f0846106e5565b6106ca565b905082815260208101848484011115610a1157610a10610654565b5b610a1c8482856109b8565b509392505050565b600082601f830112610a3957610a3861064f565b5b8151610a498482602086016109e2565b91505092915050565b600060208284031215610a6857610a676105b0565b5b600082015167ffffffffffffffff811115610a8657610a856105b5565b5b610a9284828501610a24565b9150509291505056fea264697066735822122073f47d8e7fb5d6879136c07253fbdb0576b7f5864e1614b3a62068825264d84664736f6c634300081a0033",
  "linkReferences": {},
  "deployedLinkReferences": {}
}