{
  "_format": "hh-sol-artifact-1",
  "contractName": "HyperionClient",
  "sourceName": "contracts/HyperionClient.sol",
  "abi": [
    {
      "inputs": [],
      "stateMutability": "nonpayable",
      "type": "constructor"
    },
    {
      "inputs": [
        {
          "internalType": "address",
          "name": "owner",
          "type": "address"
        }
      ],
      "name": "OwnableInvalidOwner",
      "type": "error"
    },
    {
      "inputs": [
        {
          "internalType": "address",
          "name": "account",
          "type": "address"
        }
      ],
      "name": "OwnableUnauthorizedAccount",
      "type": "error"
    },
    {
      "anonymous": false,
      "inputs": [
        {
          "indexed": true,
          "internalType": "address",
          "name": "caller",
          "type": "address"
        },
        {
          "indexed": false,
          "internalType": "uint256",
          "name": "timestamp",
          "type": "uint256"
        }
      ],
      "name": "JobExecuted",
      "type": "event"
    },
    {
      "anonymous": false,
      "inputs": [
        {
          "indexed": true,
          "internalType": "address",
          "name": "previousOwner",
          "type": "address"
        },
        {
          "indexed": true,
          "internalType": "address",
          "name": "newOwner",
          "type": "address"
        }
      ],
      "name": "OwnershipTransferred",
      "type": "event"
    },
    {
      "inputs": [],
      "name": "execute",
      "outputs": [],
      "stateMutability": "nonpayable",
      "type": "function"
    },
    {
      "inputs": [],
      "name": "lastCaller",
      "outputs": [
        {
          "internalType": "address",
          "name": "",
          "type": "address"
        }
      ],
      "stateMutability": "view",
      "type": "function"
    },
    {
      "inputs": [],
      "name": "lastExecutionTimestamp",
      "outputs": [
        {
          "internalType": "uint256",
          "name": "",
          "type": "uint256"
        }
      ],
      "stateMutability": "view",
      "type": "function"
    },
    {
      "inputs": [],
      "name": "owner",
      "outputs": [
        {
          "internalType": "address",
          "name": "",
          "type": "address"
        }
      ],
      "stateMutability": "view",
      "type": "function"
    },
    {
      "inputs": [],
      "name": "renounceOwnership",
      "outputs": [],
      "stateMutability": "nonpayable",
      "type": "function"
    },
    {
      "inputs": [
        {
          "internalType": "address",
          "name": "newOwner",
          "type": "address"
        }
      ],
      "name": "transferOwnership",
      "outputs": [],
      "stateMutability": "nonpayable",
      "type": "function"
    },
    {
      "inputs": [],
      "name": "withdraw",
      "outputs": [],
      "stateMutability": "nonpayable",
      "type": "function"
    }
  ],
  "bytecode": "0x608060405234801561001057600080fd5b5033600073ffffffffffffffffffffffffffffffffffffffff168173ffffffffffffffffffffffffffffffffffffffff16036100845760006040517f1e4fbdf700000000000000000000000000000000000000000000000000000000815260040161007b919061019e565b60405180910390fd5b6100938161009960201b60201c565b506101b9565b60008060009054906101000a900473ffffffffffffffffffffffffffffffffffffffff169050816000806101000a81548173ffffffffffffffffffffffffffffffffffffffff021916908373ffffffffffffffffffffffffffffffffffffffff1602179055508173ffffffffffffffffffffffffffffffffffffffff168173ffffffffffffffffffffffffffffffffffffffff167f8be0079c531659141344cd1fd0a4f28419497f9722a3daafe3b4186f6b6457e060405160405180910390a35050565b600073ffffffffffffffffffffffffffffffffffffffff82169050919050565b60006101888261015d565b9050919050565b6101988161017d565b82525050565b60006020820190506101b3600083018461018f565b92915050565b610695806101c86000396000f3fe608060405234801561001057600080fd5b506004361061007d5760003560e01c8063614619541161005b57806361461954146100c8578063715018a6146100d25780638da5cb5b146100dc578063f2fde38b146100fa5761007d565b80632113522a14610082578063358d1fc6146100a05780633ccfd60b146100be575b600080fd5b61008a610116565b60405161009791906104ef565b60405180910390f35b6100a861013c565b6040516100b59190610523565b60405180910390f35b6100c6610142565b005b6100d0610200565b005b6100da610298565b005b6100e46102ac565b6040516100f191906104ef565b60405180910390f35b610114600480360381019061010f919061056f565b6102d5565b005b600260009054906101000a900473ffffffffffffffffffffffffffffffffffffffff1681565b60015481565b61014a61035b565b60006101546102ac565b73ffffffffffffffffffffffffffffffffffffffff1647604051610177906105cd565b60006040518083038185875af1925050503d80600081146101b4576040519150601f19603f3d011682016040523d82523d6000602084013e6101b9565b606091505b50509050806101fd576040517f08c379a00000000000000000000000000000000000000000000000000000000081526004016101f49061063f565b60405180910390fd5b50565b4260018190555033600260006101000a81548173ffffffffffffffffffffffffffffffffffffffff021916908373ffffffffffffffffffffffffffffffffffffffff1602179055503373ffffffffffffffffffffffffffffffffffffffff167f1a342cae67011874e3a26b7c3ae4da3bc07f6488c406a6e7e9498bd0a80546f04260405161028e9190610523565b60405180910390a2565b6102a061035b565b6102aa60006103e2565b565b60008060009054906101000a900473ffffffffffffffffffffffffffffffffffffffff16905090565b6102dd61035b565b600073ffffffffffffffffffffffffffffffffffffffff168173ffffffffffffffffffffffffffffffffffffffff160361034f5760006040517f1e4fbdf700000000000000000000000000000000000000000000000000000000815260040161034691906104ef565b60405180910390fd5b610358816103e2565b50565b6103636104a6565b73ffffffffffffffffffffffffffffffffffffffff166103816102ac565b73ffffffffffffffffffffffffffffffffffffffff16146103e0576103a46104a6565b6040517f118cdaa70000000000000000000000000000000000000000000000000000000081526004016103d791906104ef565b60405180910390fd5b565b60008060009054906101000a900473ffffffffffffffffffffffffffffffffffffffff169050816000806101000a81548173ffffffffffffffffffffffffffffffffffffffff021916908373ffffffffffffffffffffffffffffffffffffffff1602179055508173ffffffffffffffffffffffffffffffffffffffff168173ffffffffffffffffffffffffffffffffffffffff167f8be0079c531659141344cd1fd0a4f28419497f9722a3daafe3b4186f6b6457e060405160405180910390a35050565b600033905090565b600073ffffffffffffffffffffffffffffffffffffffff82169050919050565b60006104d9826104ae565b9050919050565b6104e9816104ce565b82525050565b600060208201905061050460008301846104e0565b92915050565b6000819050919050565b61051d8161050a565b82525050565b60006020820190506105386000830184610514565b92915050565b600080fd5b61054c816104ce565b811461055757600080fd5b50565b60008135905061056981610543565b92915050565b6000602082840312156105855761058461053e565b5b60006105938482850161055a565b91505092915050565b600081905092915050565b50565b60006105b760008361059c565b91506105c2826105a7565b600082019050919050565b60006105d8826105aa565b9150819050919050565b600082825260208201905092915050565b7f5472616e73666572206661696c65642e00000000000000000000000000000000600082015250565b60006106296010836105e2565b9150610634826105f3565b602082019050919050565b600060208201905081810360008301526106588161061c565b905091905056fea2646970667358221220dfff1949b72ca82a4676bca0ef8d8c6486718545b05d3b64f3873a22294f0a8a64736f6c634300081a0033",
  "linkReferences": {},
  "deployedLinkReferences": {}
}