{
  "_format": "hh-sol-artifact-1",
  "contractName": "Staking",
  "sourceName": "contracts/Staking.sol",
  "abi": [
    {
      "inputs": [],
      "stateMutability": "nonpayable",
      "type": "constructor"
    },
    {
      "inputs": [
        {
          "internalType": "address",
          "name": "owner",
          "type": "address"
        }
      ],
      "name": "OwnableInvalidOwner",
      "type": "error"
    },
    {
      "inputs": [
        {
          "internalType": "address",
          "name": "account",
          "type": "address"
        }
      ],
      "name": "OwnableUnauthorizedAccount",
      "type": "error"
    },
    {
      "anonymous": false,
      "inputs": [
        {
          "indexed": true,
          "internalType": "address",
          "name": "previousOwner",
          "type": "address"
        },
        {
          "indexed": true,
          "internalType": "address",
          "name": "newOwner",
          "type": "address"
        }
      ],
      "name": "OwnershipTransferred",
      "type": "event"
    },
    {
      "anonymous": false,
      "inputs": [
        {
          "indexed": true,
          "internalType": "address",
          "name": "user",
          "type": "address"
        },
        {
          "indexed": false,
          "internalType": "uint256",
          "name": "reward",
          "type": "uint256"
        }
      ],
      "name": "RewardPaid",
      "type": "event"
    },
    {
      "anonymous": false,
      "inputs": [
        {
          "indexed": false,
          "internalType": "uint256",
          "name": "newRate",
          "type": "uint256"
        }
      ],
      "name": "RewardRateUpdated",
      "type": "event"
    },
    {
      "anonymous": false,
      "inputs": [
        {
          "indexed": true,
          "internalType": "address",
          "name": "user",
          "type": "address"
        },
        {
          "indexed": false,
          "internalType": "uint256",
          "name": "amount",
          "type": "uint256"
        }
      ],
      "name": "Staked",
      "type": "event"
    },
    {
      "anonymous": false,
      "inputs": [
        {
          "indexed": true,
          "internalType": "address",
          "name": "user",
          "type": "address"
        },
        {
          "indexed": false,
          "internalType": "uint256",
          "name": "amount",
          "type": "uint256"
        }
      ],
      "name": "Unstaked",
      "type": "event"
    },
    {
      "inputs": [],
      "name": "aiAgent",
      "outputs": [
        {
          "internalType": "contract IAIAgent",
          "name": "",
          "type": "address"
        }
      ],
      "stateMutability": "view",
      "type": "function"
    },
    {
      "inputs": [],
      "name": "claimReward",
      "outputs": [],
      "stateMutability": "nonpayable",
      "type": "function"
    },
    {
      "inputs": [],
      "name": "distributeRewardsDaily",
      "outputs": [],
      "stateMutability": "nonpayable",
      "type": "function"
    },
    {
      "inputs": [
        {
          "internalType": "string",
          "name": "chain",
          "type": "string"
        },
        {
          "internalType": "string",
          "name": "target",
          "type": "string"
        },
        {
          "internalType": "string",
          "name": "data",
          "type": "string"
        }
      ],
      "name": "getExternalData",
      "outputs": [
        {
          "internalType": "bytes",
          "name": "",
          "type": "bytes"
        }
      ],
      "stateMutability": "view",
      "type": "function"
    },
    {
      "inputs": [],
      "name": "hyperion",
      "outputs": [
        {
          "internalType": "contract IHyperion",
          "name": "",
          "type": "address"
        }
      ],
      "stateMutability": "view",
      "type": "function"
    },
    {
      "inputs": [],
      "name": "owner",
      "outputs": [
        {
          "internalType": "address",
          "name": "",
          "type": "address"
        }
      ],
      "stateMutability": "view",
      "type": "function"
    },
    {
      "inputs": [],
      "name": "renounceOwnership",
      "outputs": [],
      "stateMutability": "nonpayable",
      "type": "function"
    },
    {
      "inputs": [],
      "name": "rewardRate",
      "outputs": [
        {
          "internalType": "uint256",
          "name": "",
          "type": "uint256"
        }
      ],
      "stateMutability": "view",
      "type": "function"
    },
    {
      "inputs": [
        {
          "internalType": "address",
          "name": "",
          "type": "address"
        }
      ],
      "name": "rewards",
      "outputs": [
        {
          "internalType": "uint256",
          "name": "",
          "type": "uint256"
        }
      ],
      "stateMutability": "view",
      "type": "function"
    },
    {
      "inputs": [],
      "name": "rewardsToken",
      "outputs": [
        {
          "internalType": "contract ERC20",
          "name": "",
          "type": "address"
        }
      ],
      "stateMutability": "view",
      "type": "function"
    },
    {
      "inputs": [
        {
          "internalType": "address",
          "name": "_aiAgent",
          "type": "address"
        }
      ],
      "name": "setAIAgent",
      "outputs": [],
      "stateMutability": "nonpayable",
      "type": "function"
    },
    {
      "inputs": [
        {
          "internalType": "address",
          "name": "_hyperion",
          "type": "address"
        }
      ],
      "name": "setHyperion",
      "outputs": [],
      "stateMutability": "nonpayable",
      "type": "function"
    },
    {
      "inputs": [
        {
          "internalType": "uint256",
          "name": "newRate",
          "type": "uint256"
        }
      ],
      "name": "setRewardRate",
      "outputs": [],
      "stateMutability": "nonpayable",
      "type": "function"
    },
    {
      "inputs": [
        {
          "internalType": "address",
          "name": "_rewardsToken",
          "type": "address"
        }
      ],
      "name": "setRewardsToken",
      "outputs": [],
      "stateMutability": "nonpayable",
      "type": "function"
    },
    {
      "inputs": [
        {
          "internalType": "address",
          "name": "_stakingToken",
          "type": "address"
        }
      ],
      "name": "setStakingToken",
      "outputs": [],
      "stateMutability": "nonpayable",
      "type": "function"
    },
    {
      "inputs": [
        {
          "internalType": "uint256",
          "name": "amount",
          "type": "uint256"
        }
      ],
      "name": "stake",
      "outputs": [],
      "stateMutability": "nonpayable",
      "type": "function"
    },
    {
      "inputs": [
        {
          "internalType": "address",
          "name": "",
          "type": "address"
        }
      ],
      "name": "stakedBalance",
      "outputs": [
        {
          "internalType": "uint256",
          "name": "",
          "type": "uint256"
        }
      ],
      "stateMutability": "view",
      "type": "function"
    },
    {
      "inputs": [],
      "name": "stakingToken",
      "outputs": [
        {
          "internalType": "contract ERC20",
          "name": "",
          "type": "address"
        }
      ],
      "stateMutability": "view",
      "type": "function"
    },
    {
      "inputs": [],
      "name": "totalStaked",
      "outputs": [
        {
          "internalType": "uint256",
          "name": "",
          "type": "uint256"
        }
      ],
      "stateMutability": "view",
      "type": "function"
    },
    {
      "inputs": [
        {
          "internalType": "address",
          "name": "newOwner",
          "type": "address"
        }
      ],
      "name": "transferOwnership",
      "outputs": [],
      "stateMutability": "nonpayable",
      "type": "function"
    },
    {
      "inputs": [
        {
          "internalType": "uint256",
          "name": "amount",
          "type": "uint256"
        }
      ],
      "name": "unstake",
      "outputs": [],
      "stateMutability": "nonpayable",
      "type": "function"
    },
    {
      "inputs": [],
      "name": "updateRewardRateFromAI",
      "outputs": [],
      "stateMutability": "nonpayable",
      "type": "function"
    }
  ],
  "bytecode": "0x608060405234801561001057600080fd5b5033600073ffffffffffffffffffffffffffffffffffffffff168173ffffffffffffffffffffffffffffffffffffffff16036100845760006040517f1e4fbdf700000000000000000000000000000000000000000000000000000000815260040161007b91906101a6565b60405180910390fd5b610093816100a160201b60201c565b5060016008819055506101c1565b60008060009054906101000a900473ffffffffffffffffffffffffffffffffffffffff169050816000806101000a81548173ffffffffffffffffffffffffffffffffffffffff021916908373ffffffffffffffffffffffffffffffffffffffff1602179055508173ffffffffffffffffffffffffffffffffffffffff168173ffffffffffffffffffffffffffffffffffffffff167f8be0079c531659141344cd1fd0a4f28419497f9722a3daafe3b4186f6b6457e060405160405180910390a35050565b600073ffffffffffffffffffffffffffffffffffffffff82169050919050565b600061019082610165565b9050919050565b6101a081610185565b82525050565b60006020820190506101bb6000830184610197565b92915050565b6119b8806101d06000396000f3fe608060405234801561001057600080fd5b50600436106101425760003560e01c80637b0a47ee116100b8578063a6d5b7321161007c578063a6d5b73214610329578063b88a802f14610347578063d1af0c7d14610351578063de320cc11461036f578063f2fde38b1461038b578063f6d9adec146103a757610142565b80637b0a47ee14610297578063817b1cd2146102b55780638da5cb5b146102d35780639e447fc6146102f1578063a694fc3a1461030d57610142565b80635b8c8d471161010a5780635b8c8d47146101fd57806360217267146102195780636ebe941b14610249578063715018a61461026557806372f702f31461026f57806377742b5f1461028d57610142565b80630700037d146101475780630c1ed9fb146101775780631a43c03c146101955780631e9b12ef146101c55780632e17de78146101e1575b600080fd5b610161600480360381019061015c9190611091565b6103b1565b60405161016e91906110d7565b60405180910390f35b61017f6103c9565b60405161018c9190611151565b60405180910390f35b6101af60048036038101906101aa91906111d1565b6103ef565b6040516101bc9190611315565b60405180910390f35b6101df60048036038101906101da9190611091565b6104a8565b005b6101fb60048036038101906101f69190611363565b6104f4565b005b61021760048036038101906102129190611091565b6106e0565b005b610233600480360381019061022e9190611091565b61072c565b60405161024091906110d7565b60405180910390f35b610263600480360381019061025e9190611091565b610744565b005b61026d610790565b005b6102776107a4565b60405161028491906113b1565b60405180910390f35b6102956107ca565b005b61029f61081e565b6040516102ac91906110d7565b60405180910390f35b6102bd610824565b6040516102ca91906110d7565b60405180910390f35b6102db61082a565b6040516102e891906113db565b60405180910390f35b61030b60048036038101906103069190611363565b610853565b005b61032760048036038101906103229190611363565b61089c565b005b610331610a4b565b60405161033e9190611417565b60405180910390f35b61034f610a71565b005b610359610bff565b60405161036691906113b1565b60405180910390f35b61038960048036038101906103849190611091565b610c25565b005b6103a560048036038101906103a09190611091565b610c71565b005b6103af610cf7565b005b60066020528060005260406000206000915090505481565b600360009054906101000a900473ffffffffffffffffffffffffffffffffffffffff1681565b6060600360009054906101000a900473ffffffffffffffffffffffffffffffffffffffff1673ffffffffffffffffffffffffffffffffffffffff16633e8d63428888888888886040518763ffffffff1660e01b81526004016104569695949392919061147f565b600060405180830381865afa158015610473573d6000803e3d6000fd5b505050506040513d6000823e3d601f19601f8201168201806040525081019061049c91906115f2565b90509695505050505050565b6104b0610dad565b80600160006101000a81548173ffffffffffffffffffffffffffffffffffffffff021916908373ffffffffffffffffffffffffffffffffffffffff16021790555050565b80600560003373ffffffffffffffffffffffffffffffffffffffff1673ffffffffffffffffffffffffffffffffffffffff168152602001908152602001600020541015610576576040517f08c379a000000000000000000000000000000000000000000000000000000000815260040161056d90611687565b60405180910390fd5b61057f33610e34565b80600560003373ffffffffffffffffffffffffffffffffffffffff1673ffffffffffffffffffffffffffffffffffffffff16815260200190815260200160002060008282546105ce91906116d6565b9250508190555080600760008282546105e791906116d6565b92505081905550600160009054906101000a900473ffffffffffffffffffffffffffffffffffffffff1673ffffffffffffffffffffffffffffffffffffffff1663a9059cbb33836040518363ffffffff1660e01b815260040161064b92919061170a565b6020604051808303816000875af115801561066a573d6000803e3d6000fd5b505050506040513d601f19601f8201168201806040525081019061068e919061176b565b503373ffffffffffffffffffffffffffffffffffffffff167f0f5bb82176feb1b5e747e28471aa92156a04d9f3ab9f45f28e2d704232b93f75826040516106d591906110d7565b60405180910390a250565b6106e8610dad565b80600360006101000a81548173ffffffffffffffffffffffffffffffffffffffff021916908373ffffffffffffffffffffffffffffffffffffffff16021790555050565b60056020528060005260406000206000915090505481565b61074c610dad565b80600460006101000a81548173ffffffffffffffffffffffffffffffffffffffff021916908373ffffffffffffffffffffffffffffffffffffffff16021790555050565b610798610dad565b6107a26000610f02565b565b600160009054906101000a900473ffffffffffffffffffffffffffffffffffffffff1681565b6107d2610dad565b60006107dc610fc6565b905060005b815181101561081a5761080d828281518110610800576107ff611798565b5b6020026020010151610e34565b80806001019150506107e1565b5050565b60085481565b60075481565b60008060009054906101000a900473ffffffffffffffffffffffffffffffffffffffff16905090565b61085b610dad565b806008819055507f41d466ebd06fb97e7786086ac8b69b7eb7da798592036251291d34e9791cde018160405161089191906110d7565b60405180910390a150565b600081116108df576040517f08c379a00000000000000000000000000000000000000000000000000000000081526004016108d690611813565b60405180910390fd5b6108e833610e34565b600160009054906101000a900473ffffffffffffffffffffffffffffffffffffffff1673ffffffffffffffffffffffffffffffffffffffff166323b872dd3330846040518463ffffffff1660e01b815260040161094793929190611833565b6020604051808303816000875af1158015610966573d6000803e3d6000fd5b505050506040513d601f19601f8201168201806040525081019061098a919061176b565b5080600560003373ffffffffffffffffffffffffffffffffffffffff1673ffffffffffffffffffffffffffffffffffffffff16815260200190815260200160002060008282546109da919061186a565b9250508190555080600760008282546109f3919061186a565b925050819055503373ffffffffffffffffffffffffffffffffffffffff167f9e71bc8eea02a63969f509818f2dafb9254532904319f9dbda79b67bd34a5f3d82604051610a4091906110d7565b60405180910390a250565b600460009054906101000a900473ffffffffffffffffffffffffffffffffffffffff1681565b610a7a33610e34565b6000600660003373ffffffffffffffffffffffffffffffffffffffff1673ffffffffffffffffffffffffffffffffffffffff1681526020019081526020016000205490506000811115610bfc576000600660003373ffffffffffffffffffffffffffffffffffffffff1673ffffffffffffffffffffffffffffffffffffffff16815260200190815260200160002081905550600260009054906101000a900473ffffffffffffffffffffffffffffffffffffffff1673ffffffffffffffffffffffffffffffffffffffff1663a9059cbb33836040518363ffffffff1660e01b8152600401610b6992919061170a565b6020604051808303816000875af1158015610b88573d6000803e3d6000fd5b505050506040513d601f19601f82011682018060405250810190610bac919061176b565b503373ffffffffffffffffffffffffffffffffffffffff167fe2403640ba68fed3a2f88b7557551d1993f84b99bb10ff833f0cf8db0c5e048682604051610bf391906110d7565b60405180910390a25b50565b600260009054906101000a900473ffffffffffffffffffffffffffffffffffffffff1681565b610c2d610dad565b80600260006101000a81548173ffffffffffffffffffffffffffffffffffffffff021916908373ffffffffffffffffffffffffffffffffffffffff16021790555050565b610c79610dad565b600073ffffffffffffffffffffffffffffffffffffffff168173ffffffffffffffffffffffffffffffffffffffff1603610ceb5760006040517f1e4fbdf7000000000000000000000000000000000000000000000000000000008152600401610ce291906113db565b60405180910390fd5b610cf481610f02565b50565b610cff610dad565b6000600460009054906101000a900473ffffffffffffffffffffffffffffffffffffffff1673ffffffffffffffffffffffffffffffffffffffff1663a65135626007546040518263ffffffff1660e01b8152600401610d5e91906110d7565b602060405180830381865afa158015610d7b573d6000803e3d6000fd5b505050506040513d601f19601f82011682018060405250810190610d9f91906118b3565b9050610daa81610853565b50565b610db5611017565b73ffffffffffffffffffffffffffffffffffffffff16610dd361082a565b73ffffffffffffffffffffffffffffffffffffffff1614610e3257610df6611017565b6040517f118cdaa7000000000000000000000000000000000000000000000000000000008152600401610e2991906113db565b60405180910390fd5b565b6000600560008373ffffffffffffffffffffffffffffffffffffffff1673ffffffffffffffffffffffffffffffffffffffff1681526020019081526020016000205490506000811115610efe576000670de0b6b3a764000060085483610e9a91906118e0565b610ea49190611951565b905080600660008573ffffffffffffffffffffffffffffffffffffffff1673ffffffffffffffffffffffffffffffffffffffff1681526020019081526020016000206000828254610ef5919061186a565b92505081905550505b5050565b60008060009054906101000a900473ffffffffffffffffffffffffffffffffffffffff169050816000806101000a81548173ffffffffffffffffffffffffffffffffffffffff021916908373ffffffffffffffffffffffffffffffffffffffff1602179055508173ffffffffffffffffffffffffffffffffffffffff168173ffffffffffffffffffffffffffffffffffffffff167f8be0079c531659141344cd1fd0a4f28419497f9722a3daafe3b4186f6b6457e060405160405180910390a35050565b6060600067ffffffffffffffff811115610fe357610fe26114d6565b5b6040519080825280602002602001820160405280156110115781602001602082028036833780820191505090505b50905090565b600033905090565b6000604051905090565b600080fd5b600080fd5b600073ffffffffffffffffffffffffffffffffffffffff82169050919050565b600061105e82611033565b9050919050565b61106e81611053565b811461107957600080fd5b50565b60008135905061108b81611065565b92915050565b6000602082840312156110a7576110a6611029565b5b60006110b58482850161107c565b91505092915050565b6000819050919050565b6110d1816110be565b82525050565b60006020820190506110ec60008301846110c8565b92915050565b6000819050919050565b600061111761111261110d84611033565b6110f2565b611033565b9050919050565b6000611129826110fc565b9050919050565b600061113b8261111e565b9050919050565b61114b81611130565b82525050565b60006020820190506111666000830184611142565b92915050565b600080fd5b600080fd5b600080fd5b60008083601f8401126111915761119061116c565b5b8235905067ffffffffffffffff8111156111ae576111ad611171565b5b6020830191508360018202830111156111ca576111c9611176565b5b9250929050565b600080600080600080606087890312156111ee576111ed611029565b5b600087013567ffffffffffffffff81111561120c5761120b61102e565b5b61121889828a0161117b565b9650965050602087013567ffffffffffffffff81111561123b5761123a61102e565b5b61124789828a0161117b565b9450945050604087013567ffffffffffffffff81111561126a5761126961102e565b5b61127689828a0161117b565b92509250509295509295509295565b600081519050919050565b600082825260208201905092915050565b60005b838110156112bf5780820151818401526020810190506112a4565b60008484015250505050565b6000601f19601f8301169050919050565b60006112e782611285565b6112f18185611290565b93506113018185602086016112a1565b61130a816112cb565b840191505092915050565b6000602082019050818103600083015261132f81846112dc565b905092915050565b611340816110be565b811461134b57600080fd5b50565b60008135905061135d81611337565b92915050565b60006020828403121561137957611378611029565b5b60006113878482850161134e565b91505092915050565b600061139b8261111e565b9050919050565b6113ab81611390565b82525050565b60006020820190506113c660008301846113a2565b92915050565b6113d581611053565b82525050565b60006020820190506113f060008301846113cc565b92915050565b60006114018261111e565b9050919050565b611411816113f6565b82525050565b600060208201905061142c6000830184611408565b92915050565b600082825260208201905092915050565b82818337600083830152505050565b600061145e8385611432565b935061146b838584611443565b611474836112cb565b840190509392505050565b6000606082019050818103600083015261149a81888a611452565b905081810360208301526114af818688611452565b905081810360408301526114c4818486611452565b9050979650505050505050565b600080fd5b7f4e487b7100000000000000000000000000000000000000000000000000000000600052604160045260246000fd5b61150e826112cb565b810181811067ffffffffffffffff8211171561152d5761152c6114d6565b5b80604052505050565b600061154061101f565b905061154c8282611505565b919050565b600067ffffffffffffffff82111561156c5761156b6114d6565b5b611575826112cb565b9050602081019050919050565b600061159561159084611551565b611536565b9050828152602081018484840111156115b1576115b06114d1565b5b6115bc8482856112a1565b509392505050565b600082601f8301126115d9576115d861116c565b5b81516115e9848260208601611582565b91505092915050565b60006020828403121561160857611607611029565b5b600082015167ffffffffffffffff8111156116265761162561102e565b5b611632848285016115c4565b91505092915050565b7f496e73756666696369656e74207374616b65642062616c616e63650000000000600082015250565b6000611671601b83611432565b915061167c8261163b565b602082019050919050565b600060208201905081810360008301526116a081611664565b9050919050565b7f4e487b7100000000000000000000000000000000000000000000000000000000600052601160045260246000fd5b60006116e1826110be565b91506116ec836110be565b9250828203905081811115611704576117036116a7565b5b92915050565b600060408201905061171f60008301856113cc565b61172c60208301846110c8565b9392505050565b60008115159050919050565b61174881611733565b811461175357600080fd5b50565b6000815190506117658161173f565b92915050565b60006020828403121561178157611780611029565b5b600061178f84828501611756565b91505092915050565b7f4e487b7100000000000000000000000000000000000000000000000000000000600052603260045260246000fd5b7f43616e6e6f74207374616b652030000000000000000000000000000000000000600082015250565b60006117fd600e83611432565b9150611808826117c7565b602082019050919050565b6000602082019050818103600083015261182c816117f0565b9050919050565b600060608201905061184860008301866113cc565b61185560208301856113cc565b61186260408301846110c8565b949350505050565b6000611875826110be565b9150611880836110be565b9250828201905080821115611898576118976116a7565b5b92915050565b6000815190506118ad81611337565b92915050565b6000602082840312156118c9576118c8611029565b5b60006118d78482850161189e565b91505092915050565b60006118eb826110be565b91506118f6836110be565b9250828202611904816110be565b9150828204841483151761191b5761191a6116a7565b5b5092915050565b7f4e487b7100000000000000000000000000000000000000000000000000000000600052601260045260246000fd5b600061195c826110be565b9150611967836110be565b92508261197757611976611922565b5b82820490509291505056fea2646970667358221220c516e273fd5f2b630fac2535984d960a808c7f5735b34c5f1cab90187340725864736f6c634300081a0033",
  "linkReferences": {},
  "deployedLinkReferences": {}
}